:0400000053EF00F0CA
:10000800FACF12F0FBCF13F0E9CF14F055EF00F060
:10001800D8CF01F0E8CF02F0E0CF03F0FACF04F038
:10002800FBCF05F0E9CF06F0EACF07F0E1CF08F003
:10003800E2CF09F0D9CF0AF0DACF0BF0F3CF0CF00A
:10004800F4CF0DF0F6CF0EF0F7CF0FF0F8CF10F099
:10005800F5CF11F0B8EC00F011C0F5FF10C0F8FFB3
:100068000FC0F7FF0EC0F6FF0DC0F4FF0CC0F3FF82
:100078000BC0DAFF0AC0D9FF09C0E2FF08C0E1FFE0
:1000880007C0EAFF06C0E9FF05C0FBFF04C0FAFF8E
:1000980003C0E0FF02C0E8FF01C0D8FF10008AEFEC
:1000A80000F0EACF15F0E1CF16F0E2CF17F0D9CF84
:1000B80018F0DACF19F0F3CF1AF0F4CF1BF0F6CF1F
:1000C8001CF0F7CF1DF0F8CF1EF0F5CF1FF0BAECFB
:1000D80000F01FC0F5FF1EC0F8FF1DC0F7FF1CC0D1
:1000E800F6FF1BC0F4FF1AC0F3FF19C0DAFF18C0EF
:1000F800D9FF17C0E2FF16C0E1FF15C0EAFF14C020
:10010800E9FF13C0FBFF12C0FAFF1100780EF66E6C
:10011800010EF76E000EF86E0900F5CF21F0000110
:10012800ACEF00F0000E7E6E000E7F6E7E80000E3B
:10013800C16E380EC06E010EC26E1200000E956EB2
:10014800F19E7C80000E7F6E938096EC00F012008A
:10015800A2EC00F0AA0E216E2150B4EC00F0FCD7FE
:10016800206E20C08CFF1200F2941200F29212004E
:02017800AA00DB
:020000040020DA
:08000000FFFFFFFFFFFFFFFF00
:020000040030CA
:0E000000FF081F1EFF0B81FF0FC00FE00F4017
:00000001FF
