:040000005AEF00F0C3
:10000800FACF17F0FBCF18F0E9CF19F05CEF00F04A
:10001800D8CF06F0E8CF07F0E0CF08F0FACF09F024
:10002800FBCF0AF0E9CF0BF0EACF0CF0E1CF0DF0EF
:10003800E2CF0EF0D9CF0FF0DACF10F0F3CF11F0F6
:10004800F4CF12F0F6CF13F0F7CF14F0F8CF15F085
:10005800F5CF16F02B2AF40E026E240E016EE6EC94
:1000680000F000EC01F016C0F5FF15C0F8FF14C051
:10007800F7FF13C0F6FF12C0F4FF11C0F3FF10C062
:10008800DAFF0FC0D9FF0EC0E2FF0DC0E1FF0CC0C0
:10009800EAFF0BC0E9FF0AC0FBFF09C0FAFF08C06E
:1000A800E0FF07C0E8FF06C0D8FF1000BAEF00F075
:1000B800EACF1AF0E1CF1BF0E2CF1CF0D9CF1DF048
:1000C800DACF1EF0F3CF1FF0F4CF20F0F6CF21F0F7
:1000D800F7CF22F0F8CF23F0F5CF24F0000E2B6EE7
:1000E80002EC01F024C0F5FF23C0F8FF22C0F7FF9F
:1000F80021C0F6FF20C0F4FF1FC0F3FF1EC0DAFFC7
:100108001DC0D9FF1CC0E2FF1BC0E1FF1AC0EAFFF7
:1001180019C0E9FF18C0FBFF17C0FAFF11000F0E46
:100128002A6EDCEC00F0F8EC00F0FCEC00F0000EBD
:10013800256E030EACEC00F0F0EC00F0FF0E266E1E
:10014800DC0E256ED2EC00F02B50F4EC00F0FCD75E
:10015800266E26508009D56E25B002D0F19401D0C4
:10016800F1842550D8B41200D08E1200080EF66E15
:10017800020EF76E000EF86E0900F5CF2BF00001A5
:1001880093EF00F0000E7E6E000E7F6E7E80000EF4
:10019800C16E380EC06E010EC26E120026C027F066
:1001A80027C028F0296A2850D76E25C0D6FF12002C
:1001B800000E956EF19E7C80000E7F6E9380C6ECDB
:1001C80000F0120002C003F003C004F0056A0450F6
:1001D800D76E01C0D6FF1200F28CF294F28A120098
:1001E800256E25C08CFF1200D08EF28CF28E120084
:1001F800F19CF292F2881200F2941200F29212002C
:02020800FF00F5
:020000040020DA
:08000000FFFFFFFFFFFFFFFF00
:020000040030CA
:0E000000FF081F1EFF0B81FF0FC00FE00F4017
:00000001FF
