:0400000068EF3FF076
:107E780047EC3FF01200016E01C08CFF120080C079
:107E8800E0F0F8FCFEFFC282C2B2FED7C450120076
:107E980052EC3FF0C4EC3FF000EF00F0000E956E9E
:107EA800F19E7C80000E7F6E93805CEC3FF01200A8
:107EB800000E7E6E000E7F6E7E80000EC16E380E44
:107EC800C06E010EC26E1200860EF66E7E0EF76E42
:107ED800000EF86E00EE20F010EE08F00900F5CF65
:107EE800EEFFE550E150FAE100014CEF3FF0000EE3
:107EF800126E000E136E000E146E000E156E06D074
:107F0800010E1226000E1322142215221550800A83
:107F1800116E0D50125C0E5013580F50145810501B
:107F2800800A1158D8B01200EBD7000E096E000E67
:107F38000A6E000E0B6E000E0C6E01A008D00550E4
:107F4800092606500A2207500B2208500C22D89006
:107F58000536063607360836D89004320332023220
:107F680001320450011002100310D8A4E6D709C04A
:107F780001F00AC002F00BC003F00CC004F01200BC
:107F880020EE20F010EE17F0080EDECFE6FFE82E08
:107F9800FCD7000E3FEC3FF0000E1F6E1F50800A0A
:107FA800780FD8B0F9D73CEC3FF0166E1650016E3A
:107FB800026A036A046A0A0E056E000E066E000E57
:107FC800076E000E086E99EC3FF001C00DF002C07C
:107FD8000EF003C00FF004C010F07BEC3FF01F5010
:107FE800010D170EF324D96E000EF420DA6EDF505F
:087FF8003FEC3FF01F2AD2D735
:020000040020DA
:08000000FFFFFFFFFFFFFFFF00
:020000040030CA
:0E000000FF081F1EFF0B81FF0FC00FE00F4017
:00000001FF
