:0400000073EF00F0AA
:10000800FACF17F0FBCF18F0E9CF19F075EF00F031
:10001800D8CF06F0E8CF07F0E0CF08F0FACF09F024
:10002800FBCF0AF0E9CF0BF0EACF0CF0E1CF0DF0EF
:10003800E2CF0EF0D9CF0FF0DACF10F0F3CF11F0F6
:10004800F4CF12F0F6CF13F0F7CF14F0F8CF15F085
:10005800F5CF16F0010E2B26000E2C222D222E2273
:100068002E50800A800F08E1000E2D5C05E1000E7D
:100078002C5C02E10B0E2B5CD8A00AD0010E2B6E73
:10008800000E2C6E000E2D6E000E2E6ED6EC00F0BB
:10009800ACEC00F08EEC01F016C0F5FF15C0F8FFCF
:1000A80014C0F7FF13C0F6FF12C0F4FF11C0F3FF2E
:1000B80010C0DAFF0FC0D9FF0EC0E2FF0DC0E1FF8C
:1000C8000CC0EAFF0BC0E9FF0AC0FBFF09C0FAFF3A
:1000D80008C0E0FF07C0E8FF06C0D8FF1000F1EF36
:1000E80000F0EACF1AF0E1CF1BF0E2CF1CF0D9CF35
:1000F8001DF0DACF1EF0F3CF1FF0F4CF20F0F6CFCB
:1001080021F0F7CF22F0F8CF23F0F5CF24F0000E3E
:100118002F6E90EC01F024C0F5FF23C0F8FF22C039
:10012800F7FF21C0F6FF20C0F4FF1FC0F3FF1EC079
:10013800DAFF1DC0D9FF1CC0E2FF1BC0E1FF1AC0D7
:10014800EAFF19C0E9FF18C0FBFF17C0FAFF11004A
:10015800FF0E026EDC0E016E74EC01F02B042C1005
:100168002D102E10D8A409D0335034EC01F034509F
:1001780034EC01F0315034EC01F02B50020A2C1011
:100188002D102E10D8A403D0315021EC01F02B50A3
:10019800040A2C102D102E10D8A41200345021EC73
:1001A80001F01200302A040E30641200000E306E86
:1001B80034C031F033C034F03250D8B408D0332AC8
:1001C8003350070AD8A41200000E326E120033060C
:1001D80033661200010E326E120000EE2BF0070E8D
:1001E800EE6AE806FDE1240EF66E030EF76E000EC9
:1001F800F86E0900F5CF32F00900F5CF33F00900A9
:10020800F5CF34F0000109EF01F00F0E2A6E6AEC09
:1002180001F086EC01F08AEC01F0000E256E020E6A
:1002280046EC01F07EEC01F0FF0E266E256860ECCE
:1002380001F02F5082EC01F0FCD7036E010E046E22
:1002480003C001F004C002F0012A02D0D89002369F
:10025800012EFCD70250FF0A046E04502F1612001C
:10026800036E010E046E03C001F004C002F0012AFF
:1002780002D0D8900236012EFCD70250046E0450EA
:100288002F121200266E26508009D56E25B002D096
:10029800F19401D0F1842550D8B41200D08E120008
:1002A800000E7E6E000E7F6E7E80000EC16E380ED0
:1002B800C06E010EC26E120026C027F027C028F0BB
:1002C800296A2850D76E25C0D6FF1200000E956EF9
:1002D800F19E7C80000E7F6E938054EC01F012003A
:1002E80002C003F003C004F0056A0450D76E01C0D1
:1002F800D6FF1200F28CF294F28A1200256E25C005
:100308008CFF1200D08EF28CF28E1200F19CF292C9
:10031800F2881200F2941200F29212000102010017
:020000040020DA
:08000000FFFFFFFFFFFFFFFF00
:020000040030CA
:0E000000FF081F1EFF0B81FF0FC00FE00F4017
:00000001FF
