:040000005AEF00F0C3
:10000800FACF12F0FBCF13F0E9CF14F0FEEF02F0B5
:10001800D8CF01F0E8CF02F0E0CF03F0FACF04F038
:10002800FBCF05F0E9CF06F0EACF07F0E1CF08F003
:10003800E2CF09F0D9CF0AF0DACF0BF0F3CF0CF00A
:10004800F4CF0DF0F6CF0EF0F7CF0FF0F8CF10F099
:10005800F5CF11F0010E361A36B002D08B9001D0D0
:100068008B8088EC04F011C0F5FF10C0F8FF0FC0BA
:10007800F7FF0EC0F6FF0DC0F4FF0CC0F3FF0BC076
:10008800DAFF0AC0D9FF09C0E2FF08C0E1FF07C0D4
:10009800EAFF06C0E9FF05C0FBFF04C0FAFF03C082
:1000A800E0FF02C0E8FF01C0D8FF1000E8EF03F04E
:100200000001000A006400E803102761783D202502
:100210003464202020202020202000636F756E741D
:100220003D2025346420202020200000000E000105
:10023000816F300E0001806F3BD100018B51250A88
:10024000D8B40AD02CC0D9FF2DC0DAFF00018BC072
:10025000DFFF2C4A2D2A2CD1000E00018A6F000EE0
:100260000001896F000E0001836F2EC0F6FF2FC0C2
:10027000F7FF0800F55038EC04F0D8A036D0000E97
:1002800000018A6F000E0001896F89C020F08AC0CA
:1002900021F0000E236E0A0E226E00EC04F020C046
:1002A00089F021C08AF0D00E326EFF0E336E2EC060
:1002B000F6FF2FC0F7FF0800F550346E356A325054
:1002C000342633503522345000018927355000013F
:1002D0008A232E4A2F2A2EC0F6FF2FC0F7FF0800D0
:1002E000F55038EC04F0D8B0D0D72EC0F6FF2FC0B0
:1002F000F7FF2E4A2F2A08000001F5CF8BF00001EE
:100300008B51000AD8B4E1D0640AD8B403D00D0AE6
:10031000D8A4CED080C0D9FF81C0DAFF0001DECFE3
:1003200084F00001DDCF85F0020E00018027000E71
:100330000001812300018551800AF36E800EF35C79
:10034000000ED8B4845DD8B009D0030E0001831329
:100350000001846D0001851FD8B0852B010E0001BE
:100360008B6F00018B51050AD8B41AD000018B5154
:10037000020D010EF324F66E020EF420F76E090052
:10038000F5CF32F00900F5CF33F032500001845D33
:10039000335000018559D8A003D000018B2BE1D741
:1003A00000018A518911D8B40AD083C032F0030EFB
:1003B0003216D8B404D000018907D8A08A07800E6D
:1003C00000018BBF7F0E326E0001895100018B5DF1
:1003D00000018A51800A3258D8B00BD000018B51ED
:1003E0000001895F000E00018BBFFF0E00018A5BD8
:1003F00006D0000E00018A6F000E0001896F000117
:100400008A518911D8B411D02CC0D9FF2DC0DAFF80
:10041000200EDF6E2C4A2D2A00018907D8A08A07FA
:1004200000018A518911D8A4EFD783C032F0030E9E
:100430003216D8B408D02CC0D9FF2DC0DAFF2D0E4B
:10044000DF6E2C4A2D2A8BC082F02CD00001825105
:10045000020D010EF324F66E020EF420F76E090071
:10046000F5CF22F00A00F5CF23F084C020F085C03C
:1004700021F034EC03F020C027F021C028F0000E5A
:100480002A6E0A0E296EA7EC03F02750300F0001E8
:100490008B6F2CC0D9FF2DC0DAFF00018BC0DFFFAE
:1004A0002C4A2D2A0001820700018229D8A4CED728
:1004B0002EC0F6FF2FC0F7FF2E4A2F2A080000019A
:1004C000F5CF8BF000018B67B8D62CC0D9FF2DC0BB
:1004D000DAFF000EDF6E12007DEC04F0BAEC02F0E1
:1004E00013EC04F082EC04F086EC04F0000E55EC02
:1004F00004F0000E8B6E000E946E48EC04F020C0E9
:1005000059F021C05AF0000E2D6E370E2C6E020EDF
:100510002F6E0B0E2E6E59C030F05AC031F016EC13
:1005200001F0000E2D6E480E2C6E020E2F6E1B0E6B
:100530002E6E5BC030F0316A16EC01F0000E246EB6
:10054000370E236E010E256E5DEC03F0000E246E57
:10055000480E236E020E256E5DEC03F0365076ECED
:1005600004F03650D8A402D0010E01D0000E6FEC7A
:1005700004F0C3D7000E946E929492969298000E57
:100580008B6E8994899689980F0E5FEC04F0300E7B
:1005900067EC04F0050E5FEC04F0300E67EC04F03D
:1005A000050E5FEC04F0300E67EC04F0050E5FEC16
:1005B00004F0200E67EC04F0050E5FEC04F0280E4A
:1005C000C8EC03F0050E5FEC04F0080EC8EC03F075
:1005D000050E5FEC04F0060EC8EC03F0050E5FECB0
:1005E00004F0010EC8EC03F0050E5FEC04F00C0EF5
:1005F000C8EC03F0050E5FEC04F01200EACF15F032
:10060000E1CF16F0E2CF17F0D9CF18F0DACF19F01A
:10061000F3CF1AF0F4CF1BF0F6CF1CF0F7CF1DF09C
:10062000F8CF1EF0F5CF1FF05B2A8AEC04F01FC054
:10063000F5FF1EC0F8FF1DC0F7FF1CC0F6FF1BC072
:10064000F4FF1AC0F3FF19C0DAFF18C0D9FF17C0B2
:10065000E2FF16C0E1FF15C0EAFF14C0E9FF13C0B6
:10066000FBFF12C0FAFF1100000E256E000E246E73
:1006700023502210D8B41CD0010E266E04D0D8907E
:1006800022362336262A23AEFAD7D89024362536AA
:100690002250205C23502158D8A005D02250205E43
:1006A0002350215A2480D89023322232262EEDD78F
:1006B00024C020F025C021F01200000E266E250473
:1006C000D8A404D0020EC8EC03F003D0C00EC8ECCE
:1006D00003F0010E5FEC04F0000E266E0F0E266490
:1006E00001D012002650010DF3502324D96EF4508E
:1006F0002420DA6EDF5082EC03F0262A0F0E2664E7
:10070000F1D71200226E8984899622C021F0F00E62
:1007100021168B500F0B21108B6E89888998899434
:10072000010E5FEC04F08984899622C021F0213A01
:10073000F00E2116F00E21168B500F0B21108B6E30
:10074000898889988994010E5FEC04F012002A5080
:100750002910D8B418D0010E2B6E04D0D8902936A9
:100760002A362B2A2AAEFAD72950275C2A50285835
:10077000D8A004D02950275E2A50285AD8902A326F
:1007800029322B2EF1D727C027F028C028F01200DD
:10079000226E8994899622C021F0F00E21168B508A
:1007A0000F0B21108B6E89888998050E5FEC04F081
:1007B0008994899622C021F0213AF00E2116F00E7C
:1007C00021168B500F0B21108B6E8988899812008F
:1007D0005B6A5A6A596A4C0EF66E080EF76E000E86
:1007E000F86E00EE36F010EE23F00900F5CFEEFFC4
:1007F000E550E150FAE1000EF86E00016CEF02F0F6
:1008000020502202F3CF24F0F4CF25F02050230211
:10081000F350252621502202F350252624C020F033
:1008200025C021F01200C250C30B2009C26EC28045
:10083000C19AC198C150F00B0609C16EC08EC08626
:10084000C088C08AC090C092C094120001202020AD
:1008500020202020202020202020202020002020B8
:1008600020202020202020202020202020200000C8
:10087000226E000E216E3A0E225CD8B005D02F0EEB
:10088000226402D0010E216E21C020F0203012001F
:10089000C250C30B2009C26EC282C2B2FED7C4507E
:1008A000030B216EC350206E1200206EF19AF0905F
:1008B000F08620B002D0F09C01D0F08C1200206EA7
:1008C000FA0E00F0E82EFDD7202EFAD71200206E87
:1008D0008994899620C08BFF898889981200206EA0
:1008E00020B002D0899201D089821200206E20B0FF
:1008F00002D0899001D08980120092909292F19E4C
:1009000093801200D08EF28CF28E1200F2881200C8
:08091000F0901200F2921200B7
:020000040020DA
:08000000FFFFFFFFFFFFFFFF00
:020000040030CA
:0E000000FF011F1EFF0181FF03C003E003404C
:00000001FF
